{
  "contractName": "Novel",
  "abi": [
    {
      "inputs": [
        {
          "internalType": "string",
          "name": "novel",
          "type": "string"
        },
        {
          "internalType": "address",
          "name": "creator",
          "type": "address"
        },
        {
          "internalType": "address",
          "name": "admin",
          "type": "address"
        }
      ],
      "stateMutability": "nonpayable",
      "type": "constructor"
    },
    {
      "inputs": [],
      "name": "ADMIN",
      "outputs": [
        {
          "internalType": "address payable",
          "name": "",
          "type": "address"
        }
      ],
      "stateMutability": "view",
      "type": "function"
    },
    {
      "inputs": [],
      "name": "NOVEL_CREATOR",
      "outputs": [
        {
          "internalType": "address payable",
          "name": "",
          "type": "address"
        }
      ],
      "stateMutability": "view",
      "type": "function"
    },
    {
      "inputs": [],
      "name": "NOVEL_NAME",
      "outputs": [
        {
          "internalType": "string",
          "name": "",
          "type": "string"
        }
      ],
      "stateMutability": "view",
      "type": "function"
    },
    {
      "inputs": [],
      "name": "chapter_price",
      "outputs": [
        {
          "internalType": "uint256",
          "name": "",
          "type": "uint256"
        }
      ],
      "stateMutability": "view",
      "type": "function"
    },
    {
      "inputs": [],
      "name": "chaptersCount",
      "outputs": [
        {
          "internalType": "uint256",
          "name": "",
          "type": "uint256"
        }
      ],
      "stateMutability": "view",
      "type": "function"
    },
    {
      "inputs": [],
      "name": "freeChapterCount",
      "outputs": [
        {
          "internalType": "uint256",
          "name": "",
          "type": "uint256"
        }
      ],
      "stateMutability": "view",
      "type": "function"
    },
    {
      "inputs": [
        {
          "internalType": "uint256",
          "name": "",
          "type": "uint256"
        },
        {
          "internalType": "address",
          "name": "",
          "type": "address"
        }
      ],
      "name": "novelChapter_Subscribers",
      "outputs": [
        {
          "internalType": "bool",
          "name": "",
          "type": "bool"
        }
      ],
      "stateMutability": "view",
      "type": "function"
    },
    {
      "inputs": [
        {
          "internalType": "uint256",
          "name": "",
          "type": "uint256"
        }
      ],
      "name": "totalSubscribers",
      "outputs": [
        {
          "internalType": "uint256",
          "name": "",
          "type": "uint256"
        }
      ],
      "stateMutability": "view",
      "type": "function"
    },
    {
      "inputs": [
        {
          "internalType": "uint256",
          "name": "value",
          "type": "uint256"
        }
      ],
      "name": "setfreeChapters",
      "outputs": [],
      "stateMutability": "nonpayable",
      "type": "function"
    },
    {
      "inputs": [
        {
          "internalType": "string",
          "name": "URI",
          "type": "string"
        }
      ],
      "name": "uploadNewChapter",
      "outputs": [
        {
          "internalType": "bool",
          "name": "",
          "type": "bool"
        }
      ],
      "stateMutability": "nonpayable",
      "type": "function"
    },
    {
      "inputs": [
        {
          "internalType": "string",
          "name": "URI",
          "type": "string"
        },
        {
          "internalType": "uint256",
          "name": "chapterNumber",
          "type": "uint256"
        }
      ],
      "name": "uploadChapters",
      "outputs": [
        {
          "internalType": "bool",
          "name": "",
          "type": "bool"
        }
      ],
      "stateMutability": "nonpayable",
      "type": "function"
    },
    {
      "inputs": [
        {
          "internalType": "uint256",
          "name": "chapterNumber",
          "type": "uint256"
        }
      ],
      "name": "getChapter",
      "outputs": [
        {
          "internalType": "string",
          "name": "",
          "type": "string"
        }
      ],
      "stateMutability": "view",
      "type": "function"
    },
    {
      "inputs": [
        {
          "internalType": "uint256",
          "name": "chapterNumber",
          "type": "uint256"
        }
      ],
      "name": "getChapterAsOwner",
      "outputs": [
        {
          "internalType": "string",
          "name": "",
          "type": "string"
        }
      ],
      "stateMutability": "view",
      "type": "function"
    },
    {
      "inputs": [
        {
          "internalType": "uint256",
          "name": "chapterNumber",
          "type": "uint256"
        }
      ],
      "name": "subscribeChapter",
      "outputs": [
        {
          "internalType": "string",
          "name": "",
          "type": "string"
        }
      ],
      "stateMutability": "payable",
      "type": "function"
    },
    {
      "inputs": [
        {
          "internalType": "uint256",
          "name": "chapterStart",
          "type": "uint256"
        },
        {
          "internalType": "uint256",
          "name": "chapterAmount",
          "type": "uint256"
        }
      ],
      "name": "multipleSubscribe",
      "outputs": [
        {
          "internalType": "string",
          "name": "",
          "type": "string"
        }
      ],
      "stateMutability": "payable",
      "type": "function"
    },
    {
      "inputs": [
        {
          "internalType": "uint256",
          "name": "price",
          "type": "uint256"
        }
      ],
      "name": "changeChapterPrice",
      "outputs": [
        {
          "internalType": "string",
          "name": "",
          "type": "string"
        }
      ],
      "stateMutability": "nonpayable",
      "type": "function"
    }
  ],
  "bytecode": "0x608060405260006006553480156200001657600080fd5b50604051620028ad380380620028ad83398181016040528101906200003c9190620002d1565b82600090816200004d919062000597565b5081600260006101000a81548173ffffffffffffffffffffffffffffffffffffffff021916908373ffffffffffffffffffffffffffffffffffffffff16021790555080600160006101000a81548173ffffffffffffffffffffffffffffffffffffffff021916908373ffffffffffffffffffffffffffffffffffffffff1602179055505050506200067e565b6000604051905090565b600080fd5b600080fd5b600080fd5b600080fd5b6000601f19601f8301169050919050565b7f4e487b7100000000000000000000000000000000000000000000000000000000600052604160045260246000fd5b6200014282620000f7565b810181811067ffffffffffffffff8211171562000164576200016362000108565b5b80604052505050565b600062000179620000d9565b905062000187828262000137565b919050565b600067ffffffffffffffff821115620001aa57620001a962000108565b5b620001b582620000f7565b9050602081019050919050565b60005b83811015620001e2578082015181840152602081019050620001c5565b60008484015250505050565b600062000205620001ff846200018c565b6200016d565b905082815260208101848484011115620002245762000223620000f2565b5b62000231848285620001c2565b509392505050565b600082601f830112620002515762000250620000ed565b5b815162000263848260208601620001ee565b91505092915050565b600073ffffffffffffffffffffffffffffffffffffffff82169050919050565b600062000299826200026c565b9050919050565b620002ab816200028c565b8114620002b757600080fd5b50565b600081519050620002cb81620002a0565b92915050565b600080600060608486031215620002ed57620002ec620000e3565b5b600084015167ffffffffffffffff8111156200030e576200030d620000e8565b5b6200031c8682870162000239565b93505060206200032f86828701620002ba565b92505060406200034286828701620002ba565b9150509250925092565b600081519050919050565b7f4e487b7100000000000000000000000000000000000000000000000000000000600052602260045260246000fd5b600060028204905060018216806200039f57607f821691505b602082108103620003b557620003b462000357565b5b50919050565b60008190508160005260206000209050919050565b60006020601f8301049050919050565b600082821b905092915050565b6000600883026200041f7fffffffffffffffffffffffffffffffffffffffffffffffffffffffffffffffff82620003e0565b6200042b8683620003e0565b95508019841693508086168417925050509392505050565b6000819050919050565b6000819050919050565b600062000478620004726200046c8462000443565b6200044d565b62000443565b9050919050565b6000819050919050565b620004948362000457565b620004ac620004a3826200047f565b848454620003ed565b825550505050565b600090565b620004c3620004b4565b620004d081848462000489565b505050565b5b81811015620004f857620004ec600082620004b9565b600181019050620004d6565b5050565b601f82111562000547576200051181620003bb565b6200051c84620003d0565b810160208510156200052c578190505b620005446200053b85620003d0565b830182620004d5565b50505b505050565b600082821c905092915050565b60006200056c600019846008026200054c565b1980831691505092915050565b600062000587838362000559565b9150826002028217905092915050565b620005a2826200034c565b67ffffffffffffffff811115620005be57620005bd62000108565b5b620005ca825462000386565b620005d7828285620004fc565b600060209050601f8311600181146200060f5760008415620005fa578287015190505b62000606858262000579565b86555062000676565b601f1984166200061f86620003bb565b60005b82811015620006495784890151825560018201915060208501945060208101905062000622565b8683101562000669578489015162000665601f89168262000559565b8355505b6001600288020188555050505b505050505050565b61221f806200068e6000396000f3fe6080604052600436106100f35760003560e01c80634c814ca41161008a57806392b6d8dc1161005957806392b6d8dc1461034c57806399f7b56714610377578063b7f7bcd9146103b4578063eb9418b9146103f1576100f3565b80634c814ca41461027e5780637225da8a146102bb5780637d22c29f146102f85780637ee3812614610323576100f3565b80632f4a88a4116100c65780632f4a88a4146101a45780633c9ac774146101e1578063415df9621461021157806343c2a6f71461024e576100f3565b80630bf53748146100f857806319c7d5371461012357806319e20d7a1461014e5780632a0acc6a14610179575b600080fd5b34801561010457600080fd5b5061010d61042e565b60405161011a91906113f0565b60405180910390f35b34801561012f57600080fd5b50610138610434565b60405161014591906113f0565b60405180910390f35b34801561015a57600080fd5b5061016361043a565b604051610170919061149b565b60405180910390f35b34801561018557600080fd5b5061018e6104c8565b60405161019b91906114fe565b60405180910390f35b3480156101b057600080fd5b506101cb60048036038101906101c69190611559565b6104ee565b6040516101d8919061149b565b60405180910390f35b6101fb60048036038101906101f69190611559565b6105c4565b604051610208919061149b565b60405180910390f35b34801561021d57600080fd5b5061023860048036038101906102339190611559565b61097b565b60405161024591906113f0565b60405180910390f35b61026860048036038101906102639190611586565b610993565b604051610275919061149b565b60405180910390f35b34801561028a57600080fd5b506102a560048036038101906102a091906116fb565b610df4565b6040516102b29190611772565b60405180910390f35b3480156102c757600080fd5b506102e260048036038101906102dd91906117cb565b610ef8565b6040516102ef9190611772565b60405180910390f35b34801561030457600080fd5b5061030d610f27565b60405161031a91906114fe565b60405180910390f35b34801561032f57600080fd5b5061034a60048036038101906103459190611559565b610f4d565b005b34801561035857600080fd5b50610361610fb1565b60405161036e91906113f0565b60405180910390f35b34801561038357600080fd5b5061039e60048036038101906103999190611559565b610fb7565b6040516103ab919061149b565b60405180910390f35b3480156103c057600080fd5b506103db60048036038101906103d6919061180b565b611150565b6040516103e89190611772565b60405180910390f35b3480156103fd57600080fd5b5061041860048036038101906104139190611559565b611208565b604051610425919061149b565b60405180910390f35b60035481565b60045481565b6000805461044790611883565b80601f016020809104026020016040519081016040528092919081815260200182805461047390611883565b80156104c05780601f10610495576101008083540402835291602001916104c0565b820191906000526020600020905b8154815290600101906020018083116104a357829003601f168201915b505050505081565b600160009054906101000a900473ffffffffffffffffffffffffffffffffffffffff1681565b6060600260009054906101000a900473ffffffffffffffffffffffffffffffffffffffff1673ffffffffffffffffffffffffffffffffffffffff163373ffffffffffffffffffffffffffffffffffffffff1614610580576040517f08c379a000000000000000000000000000000000000000000000000000000000815260040161057790611900565b60405180910390fd5b816004819055506040518060400160405280601381526020017f4368616e676564205375636365737366756c6c000000000000000000000000008152509050919050565b606060035482111561060b576040517f08c379a00000000000000000000000000000000000000000000000000000000081526004016106029061196c565b60405180910390fd5b600654821115610650576040517f08c379a0000000000000000000000000000000000000000000000000000000008152600401610647906119d8565b60405180910390fd5b600115156005600084815260200190815260200160002060003373ffffffffffffffffffffffffffffffffffffffff1673ffffffffffffffffffffffffffffffffffffffff16815260200190815260200160002060009054906101000a900460ff161515036106f4576040517f08c379a00000000000000000000000000000000000000000000000000000000081526004016106eb90611a44565b60405180910390fd5b60018211156107ae5760011515600560006001856107129190611a93565b815260200190815260200160002060003373ffffffffffffffffffffffffffffffffffffffff1673ffffffffffffffffffffffffffffffffffffffff16815260200190815260200160002060009054906101000a900460ff161515146107ad576040517f08c379a00000000000000000000000000000000000000000000000000000000081526004016107a490611b39565b60405180910390fd5b5b60045434146107bc57600080fd5b600260009054906101000a900473ffffffffffffffffffffffffffffffffffffffff1673ffffffffffffffffffffffffffffffffffffffff166108fc61080134611382565b9081150290604051600060405180830381858888f1935050505015801561082c573d6000803e3d6000fd5b50600160009054906101000a900473ffffffffffffffffffffffffffffffffffffffff1673ffffffffffffffffffffffffffffffffffffffff166108fc610872346113b2565b9081150290604051600060405180830381858888f1935050505015801561089d573d6000803e3d6000fd5b5060016005600084815260200190815260200160002060003373ffffffffffffffffffffffffffffffffffffffff1673ffffffffffffffffffffffffffffffffffffffff16815260200190815260200160002060006101000a81548160ff021916908315150217905550600160086000848152602001908152602001600020546109279190611b59565b60086000848152602001908152602001600020819055506040518060400160405280601a81526020017f537562736372696265205375636365737366756c6c792e2e2e2e0000000000008152509050919050565b60086020528060005260406000206000915090505481565b60606003548311156109da576040517f08c379a00000000000000000000000000000000000000000000000000000000081526004016109d19061196c565b60405180910390fd5b600654600183856109eb9190611b59565b6109f59190611a93565b1115610a36576040517f08c379a0000000000000000000000000000000000000000000000000000000008152600401610a2d90611bd9565b60405180910390fd5b3482600454610a459190611bf9565b14610a85576040517f08c379a0000000000000000000000000000000000000000000000000000000008152600401610a7c90611c87565b60405180910390fd5b60045482610a939190611bf9565b3414610a9e57600080fd5b600115156005600085815260200190815260200160002060003373ffffffffffffffffffffffffffffffffffffffff1673ffffffffffffffffffffffffffffffffffffffff16815260200190815260200160002060009054906101000a900460ff16151503610b42576040517f08c379a0000000000000000000000000000000000000000000000000000000008152600401610b3990611a44565b60405180910390fd5b6001831115610bfc576001151560056000600186610b609190611a93565b815260200190815260200160002060003373ffffffffffffffffffffffffffffffffffffffff1673ffffffffffffffffffffffffffffffffffffffff16815260200190815260200160002060009054906101000a900460ff16151514610bfb576040517f08c379a0000000000000000000000000000000000000000000000000000000008152600401610bf290611b39565b60405180910390fd5b5b600260009054906101000a900473ffffffffffffffffffffffffffffffffffffffff1673ffffffffffffffffffffffffffffffffffffffff166108fc610c4134611382565b9081150290604051600060405180830381858888f19350505050158015610c6c573d6000803e3d6000fd5b50600160009054906101000a900473ffffffffffffffffffffffffffffffffffffffff1673ffffffffffffffffffffffffffffffffffffffff166108fc610cb2346113b2565b9081150290604051600060405180830381858888f19350505050158015610cdd573d6000803e3d6000fd5b5060008390505b60018385610cf29190611b59565b610cfc9190611a93565b8111610db55760016005600083815260200190815260200160002060003373ffffffffffffffffffffffffffffffffffffffff1673ffffffffffffffffffffffffffffffffffffffff16815260200190815260200160002060006101000a81548160ff02191690831515021790555060016008600083815260200190815260200160002054610d8b9190611b59565b60086000838152602001908152602001600020819055508080610dad90611ca7565b915050610ce4565b506040518060400160405280601881526020017f53756273637269626520537563636566756c6c792e2e2e2e0000000000000000815250905092915050565b6000600260009054906101000a900473ffffffffffffffffffffffffffffffffffffffff1673ffffffffffffffffffffffffffffffffffffffff163373ffffffffffffffffffffffffffffffffffffffff1614610e86576040517f08c379a0000000000000000000000000000000000000000000000000000000008152600401610e7d90611d3b565b60405180910390fd5b600654821115610ecb576040517f08c379a0000000000000000000000000000000000000000000000000000000008152600401610ec290611da7565b60405180910390fd5b826007600060065481526020019081526020016000209081610eed9190611f73565b506001905092915050565b60056020528160005260406000206020528060005260406000206000915091509054906101000a900460ff1681565b600260009054906101000a900473ffffffffffffffffffffffffffffffffffffffff1681565b600260009054906101000a900473ffffffffffffffffffffffffffffffffffffffff1673ffffffffffffffffffffffffffffffffffffffff163373ffffffffffffffffffffffffffffffffffffffff1614610fa757600080fd5b8060038190555050565b60065481565b6060600654821115610ffe576040517f08c379a0000000000000000000000000000000000000000000000000000000008152600401610ff590612091565b60405180910390fd5b6003548211156110ad57600115156005600084815260200190815260200160002060003373ffffffffffffffffffffffffffffffffffffffff1673ffffffffffffffffffffffffffffffffffffffff16815260200190815260200160002060009054906101000a900460ff161515146110ac576040517f08c379a00000000000000000000000000000000000000000000000000000000081526004016110a3906120fd565b60405180910390fd5b5b6007600083815260200190815260200160002080546110cb90611883565b80601f01602080910402602001604051908101604052809291908181526020018280546110f790611883565b80156111445780601f1061111957610100808354040283529160200191611144565b820191906000526020600020905b81548152906001019060200180831161112757829003601f168201915b50505050509050919050565b6000600260009054906101000a900473ffffffffffffffffffffffffffffffffffffffff1673ffffffffffffffffffffffffffffffffffffffff163373ffffffffffffffffffffffffffffffffffffffff16146111ac57600080fd5b60016006546111bb9190611b59565b6006819055508160076000600654815260200190815260200160002090816111e39190611f73565b5060006008600060065481526020019081526020016000208190555060019050919050565b606060065482111561124f576040517f08c379a000000000000000000000000000000000000000000000000000000000815260040161124690612091565b60405180910390fd5b600260009054906101000a900473ffffffffffffffffffffffffffffffffffffffff1673ffffffffffffffffffffffffffffffffffffffff163373ffffffffffffffffffffffffffffffffffffffff16146112df576040517f08c379a00000000000000000000000000000000000000000000000000000000081526004016112d690612169565b60405180910390fd5b6007600083815260200190815260200160002080546112fd90611883565b80601f016020809104026020016040519081016040528092919081815260200182805461132990611883565b80156113765780601f1061134b57610100808354040283529160200191611376565b820191906000526020600020905b81548152906001019060200180831161135957829003601f168201915b50505050509050919050565b600060646002836113939190611bf9565b61139d91906121b8565b826113a89190611a93565b9150819050919050565b600060646002836113c39190611bf9565b6113cd91906121b8565b9150819050919050565b6000819050919050565b6113ea816113d7565b82525050565b600060208201905061140560008301846113e1565b92915050565b600081519050919050565b600082825260208201905092915050565b60005b8381101561144557808201518184015260208101905061142a565b60008484015250505050565b6000601f19601f8301169050919050565b600061146d8261140b565b6114778185611416565b9350611487818560208601611427565b61149081611451565b840191505092915050565b600060208201905081810360008301526114b58184611462565b905092915050565b600073ffffffffffffffffffffffffffffffffffffffff82169050919050565b60006114e8826114bd565b9050919050565b6114f8816114dd565b82525050565b600060208201905061151360008301846114ef565b92915050565b6000604051905090565b600080fd5b600080fd5b611536816113d7565b811461154157600080fd5b50565b6000813590506115538161152d565b92915050565b60006020828403121561156f5761156e611523565b5b600061157d84828501611544565b91505092915050565b6000806040838503121561159d5761159c611523565b5b60006115ab85828601611544565b92505060206115bc85828601611544565b9150509250929050565b600080fd5b600080fd5b7f4e487b7100000000000000000000000000000000000000000000000000000000600052604160045260246000fd5b61160882611451565b810181811067ffffffffffffffff82111715611627576116266115d0565b5b80604052505050565b600061163a611519565b905061164682826115ff565b919050565b600067ffffffffffffffff821115611666576116656115d0565b5b61166f82611451565b9050602081019050919050565b82818337600083830152505050565b600061169e6116998461164b565b611630565b9050828152602081018484840111156116ba576116b96115cb565b5b6116c584828561167c565b509392505050565b600082601f8301126116e2576116e16115c6565b5b81356116f284826020860161168b565b91505092915050565b6000806040838503121561171257611711611523565b5b600083013567ffffffffffffffff8111156117305761172f611528565b5b61173c858286016116cd565b925050602061174d85828601611544565b9150509250929050565b60008115159050919050565b61176c81611757565b82525050565b60006020820190506117876000830184611763565b92915050565b6000611798826114bd565b9050919050565b6117a88161178d565b81146117b357600080fd5b50565b6000813590506117c58161179f565b92915050565b600080604083850312156117e2576117e1611523565b5b60006117f085828601611544565b9250506020611801858286016117b6565b9150509250929050565b60006020828403121561182157611820611523565b5b600082013567ffffffffffffffff81111561183f5761183e611528565b5b61184b848285016116cd565b91505092915050565b7f4e487b7100000000000000000000000000000000000000000000000000000000600052602260045260246000fd5b6000600282049050600182168061189b57607f821691505b6020821081036118ae576118ad611854565b5b50919050565b7f53656e646572206973206e6f742043726561746f72206f66204e6f76656c0000600082015250565b60006118ea601e83611416565b91506118f5826118b4565b602082019050919050565b60006020820190508181036000830152611919816118dd565b9050919050565b7f4e6f20737562736372696274696f6e2072657175697265640000000000000000600082015250565b6000611956601883611416565b915061196182611920565b602082019050919050565b6000602082019050818103600083015261198581611949565b9050919050565b7f4368617074657220646f6573206e6f7420657869737400000000000000000000600082015250565b60006119c2601683611416565b91506119cd8261198c565b602082019050919050565b600060208201905081810360008301526119f1816119b5565b9050919050565b7f416c726561647920537562736372696265640000000000000000000000000000600082015250565b6000611a2e601283611416565b9150611a39826119f8565b602082019050919050565b60006020820190508181036000830152611a5d81611a21565b9050919050565b7f4e487b7100000000000000000000000000000000000000000000000000000000600052601160045260246000fd5b6000611a9e826113d7565b9150611aa9836113d7565b9250828203905081811115611ac157611ac0611a64565b5b92915050565b7f506c65617365205375627363726962652050726576696f75732043686170746560008201527f7200000000000000000000000000000000000000000000000000000000000000602082015250565b6000611b23602183611416565b9150611b2e82611ac7565b604082019050919050565b60006020820190508181036000830152611b5281611b16565b9050919050565b6000611b64826113d7565b9150611b6f836113d7565b9250828201905080821115611b8757611b86611a64565b5b92915050565b7f43686170746572204c696d697420526561636865640000000000000000000000600082015250565b6000611bc3601583611416565b9150611bce82611b8d565b602082019050919050565b60006020820190508181036000830152611bf281611bb6565b9050919050565b6000611c04826113d7565b9150611c0f836113d7565b9250828202611c1d816113d7565b91508282048414831517611c3457611c33611a64565b5b5092915050565b7f496e73756666696369656e7420416d6f756e7400000000000000000000000000600082015250565b6000611c71601383611416565b9150611c7c82611c3b565b602082019050919050565b60006020820190508181036000830152611ca081611c64565b9050919050565b6000611cb2826113d7565b91507fffffffffffffffffffffffffffffffffffffffffffffffffffffffffffffffff8203611ce457611ce3611a64565b5b600182019050919050565b7f53656e646572204e4f742043726561746f720000000000000000000000000000600082015250565b6000611d25601283611416565b9150611d3082611cef565b602082019050919050565b60006020820190508181036000830152611d5481611d18565b9050919050565b7f4368617074657220446f6573206e6f7420657869737400000000000000000000600082015250565b6000611d91601683611416565b9150611d9c82611d5b565b602082019050919050565b60006020820190508181036000830152611dc081611d84565b9050919050565b60008190508160005260206000209050919050565b60006020601f8301049050919050565b600082821b905092915050565b600060088302611e297fffffffffffffffffffffffffffffffffffffffffffffffffffffffffffffffff82611dec565b611e338683611dec565b95508019841693508086168417925050509392505050565b6000819050919050565b6000611e70611e6b611e66846113d7565b611e4b565b6113d7565b9050919050565b6000819050919050565b611e8a83611e55565b611e9e611e9682611e77565b848454611df9565b825550505050565b600090565b611eb3611ea6565b611ebe818484611e81565b505050565b5b81811015611ee257611ed7600082611eab565b600181019050611ec4565b5050565b601f821115611f2757611ef881611dc7565b611f0184611ddc565b81016020851015611f10578190505b611f24611f1c85611ddc565b830182611ec3565b50505b505050565b600082821c905092915050565b6000611f4a60001984600802611f2c565b1980831691505092915050565b6000611f638383611f39565b9150826002028217905092915050565b611f7c8261140b565b67ffffffffffffffff811115611f9557611f946115d0565b5b611f9f8254611883565b611faa828285611ee6565b600060209050601f831160018114611fdd5760008415611fcb578287015190505b611fd58582611f57565b86555061203d565b601f198416611feb86611dc7565b60005b8281101561201357848901518255600182019150602085019450602081019050611fee565b86831015612030578489015161202c601f891682611f39565b8355505b6001600288020188555050505b505050505050565b7f4368617074657220446f6573204e6f7420657869737400000000000000000000600082015250565b600061207b601683611416565b915061208682612045565b602082019050919050565b600060208201905081810360008301526120aa8161206e565b9050919050565b7f4e6f742053756273637269626564000000000000000000000000000000000000600082015250565b60006120e7600e83611416565b91506120f2826120b1565b602082019050919050565b60006020820190508181036000830152612116816120da565b9050919050565b7f4e6f742043726561746f72000000000000000000000000000000000000000000600082015250565b6000612153600b83611416565b915061215e8261211d565b602082019050919050565b6000602082019050818103600083015261218281612146565b9050919050565b7f4e487b7100000000000000000000000000000000000000000000000000000000600052601260045260246000fd5b60006121c3826113d7565b91506121ce836113d7565b9250826121de576121dd612189565b5b82820490509291505056fea26469706673582212209232409fc856713d7e67e6cc5070321654de26624a5bfe517c43ec7e1e0a5b5264736f6c63430008110033",
  "immutableReferences": {},
  "source": "// SPDX-License-Identifier: MIT\r\npragma solidity ^0.8.0;\r\n\r\ncontract NovelFactory{\r\n    address[] public NovelCollection;\r\n    address public ADMIN;\r\n\r\n    constructor(){\r\n        ADMIN = msg.sender;\r\n    }\r\n\r\n    function CreateNovel(string memory novelName) public {\r\n        Novel newNovel = new Novel(novelName, msg.sender, ADMIN);\r\n        NovelCollection.push(address(newNovel));\r\n    }\r\n\r\n    function GetCreatedNovel(uint256 index) public view returns(address){\r\n        return NovelCollection[index];\r\n    }\r\n\r\n    function TotalNovels() public view returns(uint256){\r\n        return NovelCollection.length;\r\n    }\r\n}\r\n\r\ncontract Novel{\r\n\r\n    string public NOVEL_NAME;\r\n    address payable public ADMIN;\r\n    address payable public  NOVEL_CREATOR;\r\n    uint256 public freeChapterCount;\r\n    uint256 public chapter_price;\r\n    mapping(uint256 => mapping(address => bool)) public novelChapter_Subscribers;\r\n    uint256 public chaptersCount = 0;\r\n    mapping(uint256 => string) private chapters;\r\n    mapping(uint256 => uint256) public totalSubscribers;\r\n\r\n    constructor(string memory novel, address creator, address admin){\r\n        NOVEL_NAME = novel;\r\n        NOVEL_CREATOR = payable(creator);\r\n        ADMIN = payable(admin);\r\n    }\r\n\r\n    function setfreeChapters(uint256 value) public{\r\n        require(msg.sender == NOVEL_CREATOR);\r\n        freeChapterCount = value;\r\n    }\r\n\r\n    function uploadNewChapter(string memory URI) public returns(bool){\r\n        require(msg.sender == NOVEL_CREATOR);\r\n        chaptersCount = chaptersCount + 1;\r\n        chapters[chaptersCount] = URI;\r\n        totalSubscribers[chaptersCount] = 0;\r\n        return true;\r\n    } \r\n\r\n    function uploadChapters(string memory URI, uint256 chapterNumber) public returns(bool){\r\n        require(msg.sender == NOVEL_CREATOR, \"Sender NOt Creator\");\r\n        require(chapterNumber <= chaptersCount, \"Chapter Does not exist\");\r\n        chapters[chaptersCount] = URI;\r\n        return true;\r\n    }\r\n\r\n    function getChapter(uint256 chapterNumber) public view returns(string memory){\r\n        require(chapterNumber <= chaptersCount, \"Chapter Does Not exist\");\r\n        if(chapterNumber > freeChapterCount){\r\n            require(novelChapter_Subscribers[chapterNumber][msg.sender] == true, \"Not Subscribed\");\r\n        }\r\n\r\n        return chapters[chapterNumber];\r\n    }\r\n\r\n    function getChapterAsOwner(uint256 chapterNumber) public view returns(string memory){\r\n        require(chapterNumber <= chaptersCount, \"Chapter Does Not exist\");\r\n        require(msg.sender == NOVEL_CREATOR, \"Not Creator\");\r\n\r\n        return chapters[chapterNumber];\r\n    }\r\n\r\n    function subscribeChapter(uint256 chapterNumber) public payable returns(string memory){\r\n        require(chapterNumber <= freeChapterCount, \"No subscribtion required\");\r\n        require(chapterNumber <= chaptersCount, \"Chapter does not exist\");\r\n        require(novelChapter_Subscribers[chapterNumber][msg.sender] != true, \"Already Subscribed\");\r\n        if(chapterNumber > 1){\r\n            require(novelChapter_Subscribers[chapterNumber - 1][msg.sender] == true, \"Please Subscribe Previous Chapter\");\r\n        }\r\n        require(msg.value == chapter_price);\r\n\r\n        NOVEL_CREATOR.transfer(paymentToCreator(msg.value));\r\n        ADMIN.transfer(paymentToAdmin(msg.value));\r\n\r\n        novelChapter_Subscribers[chapterNumber][msg.sender] = true;\r\n        totalSubscribers[chapterNumber] = totalSubscribers[chapterNumber] + 1;\r\n\r\n        return \"Subscribe Successfully....\";\r\n    }\r\n\r\n    function multipleSubscribe(uint256 chapterStart, uint256 chapterAmount) public payable returns(string memory){\r\n        require(chapterStart <= freeChapterCount, \"No subscribtion required\");\r\n        require((chapterStart + chapterAmount - 1) <= chaptersCount, \"Chapter Limit Reached\");\r\n        require((chapter_price * chapterAmount) == msg.value, \"Insufficient Amount\");\r\n        require(msg.value == (chapterAmount * chapter_price));\r\n        require(novelChapter_Subscribers[chapterStart][msg.sender] != true, \"Already Subscribed\");\r\n        if(chapterStart > 1){\r\n            require(novelChapter_Subscribers[chapterStart - 1][msg.sender] == true, \"Please Subscribe Previous Chapter\");\r\n        }\r\n        NOVEL_CREATOR.transfer(paymentToCreator(msg.value));\r\n        ADMIN.transfer(paymentToAdmin(msg.value));        \r\n\r\n        for(uint256 i = chapterStart; i <= (chapterStart + chapterAmount - 1); i++){\r\n            novelChapter_Subscribers[i][msg.sender] = true;\r\n            totalSubscribers[i] = totalSubscribers[i] + 1; \r\n        }\r\n\r\n        return \"Subscribe Succefully....\";\r\n    }\r\n\r\n    function paymentToCreator(uint256 value) internal pure returns(uint256){\r\n        value = value - (value * 2 / 100);\r\n        return value;\r\n    }\r\n\r\n    function paymentToAdmin(uint256 value) internal pure returns(uint256){\r\n        value = (value * 2 / 100);\r\n        return value;\r\n    }\r\n\r\n    function changeChapterPrice(uint256 price) public returns(string memory){\r\n        require(msg.sender == NOVEL_CREATOR , \"Sender is not Creator of Novel\");\r\n\r\n        chapter_price = price;\r\n\r\n        return \"Changed Successfull\";\r\n    }\r\n\r\n}",
  "sourcePath": "C:\\NODE JS\\NovelBackend3\\contracts\\Novel.sol",
  "compiler": {
    "name": "solc",
    "version": "0.8.17+commit.8df45f5f.Emscripten.clang"
  },
  "schemaVersion": "3.4.8",
  "updatedAt": "2022-11-11T05:53:10.452Z",
  "devdoc": {
    "kind": "dev",
    "methods": {},
    "version": 1
  },
  "userdoc": {
    "kind": "user",
    "methods": {},
    "version": 1
  }
}